{
  "address": "0x5FbDB2315678afecb367f032d93F642f64180aa3",
  "abi": [
    {
      "inputs": [
        {
          "internalType": "string",
          "name": "_greeting",
          "type": "string"
        }
      ],
      "stateMutability": "nonpayable",
      "type": "constructor"
    },
    {
      "inputs": [],
      "name": "notAnOwner",
      "type": "error"
    },
    {
      "inputs": [],
      "name": "greet",
      "outputs": [
        {
          "internalType": "string",
          "name": "_greeting",
          "type": "string"
        }
      ],
      "stateMutability": "view",
      "type": "function"
    },
    {
      "inputs": [
        {
          "internalType": "string",
          "name": "_greeting",
          "type": "string"
        }
      ],
      "name": "updateGreeting",
      "outputs": [],
      "stateMutability": "nonpayable",
      "type": "function"
    }
  ],
  "transactionHash": "0xaddfdc4864a2d9f5d5d55d1e4925a984b385512af7277bb24f98807bc5b2231e",
  "args": [
    "Hello Human, Greetings from the greeter contract!!"
  ],
  "numDeployments": 1,
  "solcInputHash": "023af7d6abb6ca88d1146b6a80013ff2",
  "bytecode": "0x60806040523480156200001157600080fd5b5060405162000fa438038062000fa4833981810160405281019062000037919062000322565b6200006760405180606001604052806026815260200162000f7e6026913982620000c060201b620001de1760201c565b8060019081620000789190620005be565b50336000806101000a81548173ffffffffffffffffffffffffffffffffffffffff021916908373ffffffffffffffffffffffffffffffffffffffff1602179055505062000732565b620001628282604051602401620000d9929190620006f7565b6040516020818303038152906040527f4b5c4277000000000000000000000000000000000000000000000000000000007bffffffffffffffffffffffffffffffffffffffffffffffffffffffff19166020820180517bffffffffffffffffffffffffffffffffffffffffffffffffffffffff83818316178352505050506200016660201b60201c565b5050565b60008151905060006a636f6e736f6c652e6c6f679050602083016000808483855afa5050505050565b6000604051905090565b600080fd5b600080fd5b600080fd5b600080fd5b6000601f19601f8301169050919050565b7f4e487b7100000000000000000000000000000000000000000000000000000000600052604160045260246000fd5b620001f882620001ad565b810181811067ffffffffffffffff821117156200021a5762000219620001be565b5b80604052505050565b60006200022f6200018f565b90506200023d8282620001ed565b919050565b600067ffffffffffffffff82111562000260576200025f620001be565b5b6200026b82620001ad565b9050602081019050919050565b60005b83811015620002985780820151818401526020810190506200027b565b60008484015250505050565b6000620002bb620002b58462000242565b62000223565b905082815260208101848484011115620002da57620002d9620001a8565b5b620002e784828562000278565b509392505050565b600082601f830112620003075762000306620001a3565b5b815162000319848260208601620002a4565b91505092915050565b6000602082840312156200033b576200033a62000199565b5b600082015167ffffffffffffffff8111156200035c576200035b6200019e565b5b6200036a84828501620002ef565b91505092915050565b600081519050919050565b7f4e487b7100000000000000000000000000000000000000000000000000000000600052602260045260246000fd5b60006002820490506001821680620003c657607f821691505b602082108103620003dc57620003db6200037e565b5b50919050565b60008190508160005260206000209050919050565b60006020601f8301049050919050565b600082821b905092915050565b600060088302620004467fffffffffffffffffffffffffffffffffffffffffffffffffffffffffffffffff8262000407565b62000452868362000407565b95508019841693508086168417925050509392505050565b6000819050919050565b6000819050919050565b60006200049f6200049962000493846200046a565b62000474565b6200046a565b9050919050565b6000819050919050565b620004bb836200047e565b620004d3620004ca82620004a6565b84845462000414565b825550505050565b600090565b620004ea620004db565b620004f7818484620004b0565b505050565b5b818110156200051f5762000513600082620004e0565b600181019050620004fd565b5050565b601f8211156200056e576200053881620003e2565b6200054384620003f7565b8101602085101562000553578190505b6200056b6200056285620003f7565b830182620004fc565b50505b505050565b600082821c905092915050565b6000620005936000198460080262000573565b1980831691505092915050565b6000620005ae838362000580565b9150826002028217905092915050565b620005c98262000373565b67ffffffffffffffff811115620005e557620005e4620001be565b5b620005f18254620003ad565b620005fe82828562000523565b600060209050601f83116001811462000636576000841562000621578287015190505b6200062d8582620005a0565b8655506200069d565b601f1984166200064686620003e2565b60005b82811015620006705784890151825560018201915060208501945060208101905062000649565b868310156200069057848901516200068c601f89168262000580565b8355505b6001600288020188555050505b505050505050565b600082825260208201905092915050565b6000620006c38262000373565b620006cf8185620006a5565b9350620006e181856020860162000278565b620006ec81620001ad565b840191505092915050565b60006040820190508181036000830152620007138185620006b6565b90508181036020830152620007298184620006b6565b90509392505050565b61083c80620007426000396000f3fe608060405234801561001057600080fd5b50600436106100365760003560e01c80632867cc441461003b578063cfae321714610057575b600080fd5b610055600480360381019061005091906103fd565b610075565b005b61005f61014c565b60405161006c91906104c5565b60405180910390f35b60008054906101000a900473ffffffffffffffffffffffffffffffffffffffff1673ffffffffffffffffffffffffffffffffffffffff163373ffffffffffffffffffffffffffffffffffffffff16146100fa576040517f91020d7b00000000000000000000000000000000000000000000000000000000815260040160405180910390fd5b6101396040518060400160405280601a81526020017f5570646174696e6720746865206772656574696e6720746f3a20000000000000815250826101de565b806001908161014891906106fd565b5050565b60606001805461015b90610516565b80601f016020809104026020016040519081016040528092919081815260200182805461018790610516565b80156101d45780601f106101a9576101008083540402835291602001916101d4565b820191906000526020600020905b8154815290600101906020018083116101b757829003601f168201915b5050505050905090565b61027682826040516024016101f49291906107cf565b6040516020818303038152906040527f4b5c4277000000000000000000000000000000000000000000000000000000007bffffffffffffffffffffffffffffffffffffffffffffffffffffffff19166020820180517bffffffffffffffffffffffffffffffffffffffffffffffffffffffff838183161783525050505061027a565b5050565b60008151905060006a636f6e736f6c652e6c6f679050602083016000808483855afa5050505050565b6000604051905090565b600080fd5b600080fd5b600080fd5b600080fd5b6000601f19601f8301169050919050565b7f4e487b7100000000000000000000000000000000000000000000000000000000600052604160045260246000fd5b61030a826102c1565b810181811067ffffffffffffffff82111715610329576103286102d2565b5b80604052505050565b600061033c6102a3565b90506103488282610301565b919050565b600067ffffffffffffffff821115610368576103676102d2565b5b610371826102c1565b9050602081019050919050565b82818337600083830152505050565b60006103a061039b8461034d565b610332565b9050828152602081018484840111156103bc576103bb6102bc565b5b6103c784828561037e565b509392505050565b600082601f8301126103e4576103e36102b7565b5b81356103f484826020860161038d565b91505092915050565b600060208284031215610413576104126102ad565b5b600082013567ffffffffffffffff811115610431576104306102b2565b5b61043d848285016103cf565b91505092915050565b600081519050919050565b600082825260208201905092915050565b60005b83811015610480578082015181840152602081019050610465565b60008484015250505050565b600061049782610446565b6104a18185610451565b93506104b1818560208601610462565b6104ba816102c1565b840191505092915050565b600060208201905081810360008301526104df818461048c565b905092915050565b7f4e487b7100000000000000000000000000000000000000000000000000000000600052602260045260246000fd5b6000600282049050600182168061052e57607f821691505b602082108103610541576105406104e7565b5b50919050565b60008190508160005260206000209050919050565b60006020601f8301049050919050565b600082821b905092915050565b6000600883026105a97fffffffffffffffffffffffffffffffffffffffffffffffffffffffffffffffff8261056c565b6105b3868361056c565b95508019841693508086168417925050509392505050565b6000819050919050565b6000819050919050565b60006105fa6105f56105f0846105cb565b6105d5565b6105cb565b9050919050565b6000819050919050565b610614836105df565b61062861062082610601565b848454610579565b825550505050565b600090565b61063d610630565b61064881848461060b565b505050565b5b8181101561066c57610661600082610635565b60018101905061064e565b5050565b601f8211156106b15761068281610547565b61068b8461055c565b8101602085101561069a578190505b6106ae6106a68561055c565b83018261064d565b50505b505050565b600082821c905092915050565b60006106d4600019846008026106b6565b1980831691505092915050565b60006106ed83836106c3565b9150826002028217905092915050565b61070682610446565b67ffffffffffffffff81111561071f5761071e6102d2565b5b6107298254610516565b610734828285610670565b600060209050601f8311600181146107675760008415610755578287015190505b61075f85826106e1565b8655506107c7565b601f19841661077586610547565b60005b8281101561079d57848901518255600182019150602085019450602081019050610778565b868310156107ba57848901516107b6601f8916826106c3565b8355505b6001600288020188555050505b505050505050565b600060408201905081810360008301526107e9818561048c565b905081810360208301526107fd818461048c565b9050939250505056fea26469706673582212206107071a64cb9e3c88e22121ec91e3f739731251fb560b2f09ed64e5330b337d64736f6c634300081200334465706c6f79696e672074686520636f6e74726163742077697468206772656574696e673a20",
  "devdoc": {
    "kind": "dev",
    "methods": {},
    "version": 1
  },
  "userdoc": {
    "kind": "user",
    "methods": {},
    "version": 1
  },
  "storageLayout": {
    "storage": [
      {
        "astId": 6,
        "contract": "contracts/Greeter.sol:Greeter",
        "label": "owner",
        "offset": 0,
        "slot": "0",
        "type": "t_address"
      },
      {
        "astId": 8,
        "contract": "contracts/Greeter.sol:Greeter",
        "label": "greeting",
        "offset": 0,
        "slot": "1",
        "type": "t_string_storage"
      }
    ],
    "types": {
      "t_address": {
        "encoding": "inplace",
        "label": "address",
        "numberOfBytes": "20"
      },
      "t_string_storage": {
        "encoding": "bytes",
        "label": "string",
        "numberOfBytes": "32"
      }
    }
  }
}